S01700004763634170706C69636174696F6E312E737265635B
S11300000C94A2000C94AC000C94AC000C94AC00C6
S11300100C94AC000C94AC000C94AC000C94AC00AC
S11300200C94AC000C94AC000C94AC000C94AC009C
S11300300C94AC000C94AC000C94AC000C94AC008C
S11300400C94AC000C94AC000C94AC000C94AC007C
S11300500C94AC00E200E500E500E500D600E50004
S1130060CA00BE00E500E500E500E500E500E500A6
S1130070E500E500E500E500E500E500E500E50054
S1130080E500E500E500E500E500E500E500E50044
S1130090E500E500E500E500E500E500E500E50034
S11300A0E500E500E500E500E500E500E500E50024
S11300B0E500E500E500E500E500E500E500E50014
S11300C0E500E500E500E500E500E500E500E50004
S11300D0E500E500DF00E500E500E500D300E5000C
S11300E0C700BB00E500E500E500E500E500E5002C
S11300F0E500E500E500E500E500E500E500E500D4
S1130100E500E500E500E500E500E500E500E500C3
S1130110E500E500DC00E500E500E500D000E500D1
S1130120C400E800E500E500E500E500E500E500C1
S1130130E500E500D900E500E500E500CD00E500B7
S1130140C100B80011241FBECFE5D8E0DEBFCDBF8B
S11301500E9401010C9411010C940000875791092D
S11301608837910590F5865D9F4FFC010C940B0137
S113017081E090E0089583E090E0089584E090E0C9
S1130180089585E090E0089586E090E0089587E082
S113019090E0089588E090E0089589E090E0089563
S11301A08AE090E008958BE090E008958CE090E080
S11301B008958DE090E008958EE090E008958FE03A
S11301C090E0089580E190E0089580E090E0089543
S11301D082E090E008952FEE0FC02BBB81E009C0B0
S11301E099B3982329F489B390E00E94AE0008954E
S11301F0880F8930A8F3220F213778F780E090E048
S113020008958FEF84BB80EF8ABB8FE08BBB0E9485
S1130210EB0085BBFCCFEE0FFF1F0590F491E02DA2
S10902200994F894FFCFDD
S9030000FC
